:100000000C946C010C9489010C9489010C941F1CB4
:100010000C9489010C9489010C9489010C94890138
:100020000C9489010C9489010C945C1A0C94341B77
:100030000C94111A0C9489010C9489010C94890177
:100040000C9489010C9489010C9489010C94890108
:100050000C9489010C94381A0C9489010C94890130
:100060000C9489010C9489010C9489010C948901E8
:100070000C9489010C9489010C9489010C948901D8
:100080000C9489010C9489010C9489010C948901C8
:100090000C9489010C9489010C9489010C948901B8
:1000A0000C9489010C9489010C94890105010902C1
:1000B000A10185020901A1000509190129081500FE
:1000C0002501950875018102050109300931158165
:1000D000257F95027508810609381581257F9501D0
:1000E00075088106050C0A38021581257F95017572
:1000F000088106C0C005010980A101850319012AF4
:10010000B700150126B700950175108100C0050CD8
:100110000901A101850419012AA002150126A002E6
:10012000950175108100C005010906A1018506052C
:100130000719E029E71500250195087501810205D9
:1001400007190029EF1500250195F07501810205B9
:10015000081901290595057501910295017503910D
:1001600001C005010906A101050719E029E71500ED
:100170002501950875018102950175088101050722
:10018000190029FF150026FF009506750881000556
:10019000081901290515002501950575019102959C
:1001A0000175039101C009023B00020100A0FA0998
:1001B0000400000103010100092111010001224492
:1001C0000007058103080001090401000103000084
:1001D0000009211101000122B60007058203200059
:1001E0000112010002000000085346010001000155
:1001F0000200010C0343006F0072006E00650000F6
:1002000000100366006F006F007300740061006EE1
:1002100000000004030904000014001A000800157F
:10022000001700140004001600070009000A00006F
:10023000001D001B00060019000500000000000062
:10024000002B00E100E000000000000000000000C2
:10025000000000000000000000000000000000009E
:10026000000000000000000000000000000000008E
:1002700000000000002152007C000000000000008F
:10028000000000000000000000000000000000006E
:10029000000000000000000000000000000000005E
:1002A000000000000000000000000000000000004E
:1002B000000000000000000000000000000000003E
:1002C000000000000000000000000000000000002E
:1002D000000000000001000011241FBECFEFDAE093
:1002E000DEBFCDBF11E0A0E0B1E0E6EBFCE302C071
:1002F00005900D92A43AB107D9F722E0A4EAB1E043
:1003000001C01D92A93DB207E1F70E9411170C949C
:10031000071E0C9400009093910280939002089520
:100320009093930280939202089521E030E002C0FE
:10033000220F331F8A95E2F78091920290919302E7
:10034000822B932B0E949001089521E030E002C09F
:10035000220F331F8A95E2F7209530958091920203
:1003600090919302822393230E94900108959830E4
:1003700090F5863080F5E82FF0E086E0989FE00D5C
:10038000F11D11248E2F877041E001C0440F8A9522
:10039000EAF783E0F695E7958A95E1F7EE0FFF1F00
:1003A000EE0FFF1FE659FD4F20E030E070E0519165
:1003B000DF01CB01022E02C0969587950A94E2F7E1
:1003C000817081958527842385278E932F5F3F4FEA
:1003D0002430310561F70895983078F5863068F556
:1003E000E82FF0E086E0989FE00DF11D11249E2F8C
:1003F000977083E0F695E7958A95E1F7EE0FFF1F7A
:10040000EE0FFF1FE659FD4F40E050E080E02191E4
:1004100030E0092E02C0369527950A94E2F7217044
:100420003327042E01C0220F0A94EAF7822B4F5F74
:100430005F4F4430510559F7089580E00895809149
:10044000990290919802981301C008958F5F877068
:10045000FACF909194028095892380939402282F5B
:10046000277021110DC0891759F09091960292FFC3
:1004700007C08695869586950E94A50110929402E4
:10048000089580918D0290919702892B50918E0250
:10049000511591F090912B01911521F090919502B9
:1004A00097FD0BC096E028EA31E040E0915048F417
:1004B000411110928E02852B08959EE120EB31E0D0
:1004C000F4CFF90161919F01611581F34F5FEECF88
:1004D000982F909580918D02892380938D020895A5
:1004E0007830D0F46630C0F48230C8F4E62FF0E003
:1004F00096E0799FE00DF11D112490E09195819592
:10050000910980739927E80FF91FEE0FFF1FE95E2D
:10051000FD4F85919491089580E090E0089581E0E9
:10052000FCCF9C01803E910509F448C0D8F481338A
:10053000910509F47DC048F48932910509F46DC034
:100540008A9709F47CC0C90108958933910551F156
:100550008238910539F1C597B1F78091950285FFF1
:10056000F2CF29C0843E910509F447C048F4823E89
:10057000910599F1833E9105A9F121EE30E0E3CF99
:10058000863E910509F444C0873E9105E1F68091CD
:10059000950283FD61C09091960291FF2BC024EEDD
:1005A00030E0D1CF809195028370811152C080914B
:1005B000960283FFC8CF29E230E0C5CF8091950233
:1005C00080FD33C09091960290FFBDCF23EE30E0C6
:1005D00084FFB9CF20E030E0B6CF8091950282FD54
:1005E000F5CFB1CF8091950282FD30C090919602F7
:1005F00090FD2FC084FFA7CFEDCF8091960281FFA1
:10060000A2CF8091950227EE30E084FDE3CF9BCF0F
:100610008091950283FDF7CF96CF8091950285FD5D
:100620001EC08091960283FF8ECF29E330E08BCFEE
:100630008091950286FF87CF2AE230E084CF8091B7
:10064000950286FF80CF21E330E07DCF22EE30E0BF
:100650007ACF20EE30E077CF26EE30E074CF25E37E
:1006600030E071CF9091950292FF10C041E0282FA9
:100670002471243009F040E031E0282F287128301F
:1006800009F030E0431711F02CE0822793FF10C0EF
:1006900041E0282F2471243109F040E031E0282F77
:1006A0002871283109F030E0431711F02CE082273F
:1006B0003091960230FF10C051E0282F2171213077
:1006C00009F050E041E0282F2871283009F040E07F
:1006D000541711F029E0822731FF10C041E0282F84
:1006E0002171213109F040E031E0282F28712831B3
:1006F00009F030E0431711F029E0822794FD877E4E
:1007000008951F93CF93DF930E949102EC0181150E
:1007100022E5920708F055C0811540E5940708F0DE
:10072000D1C0803E910520F58D3C910508F0A4C014
:10073000883A910570F4853A910508F09AC08130A5
:100740009105D1F10497813A9105B0F1C0E0D0E074
:1007500033C0885A91094B97C8F7C85AD0E0CC0FDC
:10076000DD1FC85CDE4F0990D881C02DD46424C041
:10077000811550E49507C0F4C11580E2D80708F050
:10078000B7C0C83ED105C0F0CE019A9581159F41F2
:10079000E8F68D2F0E943203182FCE0199270E9470
:1007A0009102EC01D12B08C099270E949102CC271D
:1007B000DF70C82BD92BD06ACE01DF91CF911F916A
:1007C0000895803842E59407C8F5803652E59507CC
:1007D00008F05BC0C03482E5D807D0F4C03292E59F
:1007E000D90708F04BC08C2F8695869520E2829F12
:1007F000C0011124C37021E030E0A90102C0440F00
:10080000551FCA95E2F7EA01C82BD92BDD68D4CF72
:100810008C2F86958695877050E2859FC0011124A4
:10082000C37021E030E0A90102C0440F551FCA95F2
:10083000E2F7EA01C82BD92BDC68BECF803C52E539
:10084000950758F48F71C03AD245A0F590E0982FE3
:100850008827EC01C46FD06AAFCF805C9245809747
:1008600008F074CFDC2FCC27CC27DF71C06FD06AA3
:10087000A3CFA497D064A0CFD0659ECFCF71D0E096
:10088000DC2FCC27C16FD06A97CF8695869587706D
:1008900020E2829FC0011124C37021E030E0A90151
:1008A00002C0440F551FCA95E2F7EA01C82BD92BA5
:1008B000DA6882CF0E943203C82FD0E0DC2FCC2729
:1008C000D0627ACF8F710E94320393E0CC0FDD1F8C
:1008D0009A95E1F7CC27DF70282F30E084FF04C021
:1008E00050E1859F90011124C22BD32BD06964CF96
:1008F0008D2F8F710E943203182FCE0199270E94ED
:100900009102EC01D12BDCCFA0E0B0E0EAE8F4E00A
:100910000C94431D8C01E0909202F0909302809120
:10092000900290919102E82AF92ACFE0D0E0CC24FD
:10093000C394D12CC6010C2E02C0880F991F0A94B3
:10094000E2F78E219F21892B49F4219798F7B12C4A
:100950008B2DCDB7DEB7E9E00C945F1DBC2EB8013E
:100960008C2F0E9470020E948103019771F3F0CFD7
:100970000F931F93CF93FC01858100811181811515
:1009800091F0611581F0C8010E948404C82F682F7E
:10099000C8010E94B701B8018C2F0E947002CF914C
:1009A0001F910F910895C8010E94EC01C82FF3CF49
:1009B000CF93DF93D82FC92F0E9484046D2F7C2FF3
:1009C0000E9470020E948103DF91CF910895FC0183
:1009D00084818115A1F0808191810E94D804282F03
:1009E00092959F70963099F060F4925F9F7092306C
:1009F00030F4203FB1F038F481E0283E38F080E058
:100A000008959A5FF3CF81E0243FC9F7089591E0FC
:100A1000213F09F090E081E0283E08F080E0892B3A
:100A2000089581E0089580E00895F894E82FE29514
:100A3000EF70F0E041A18F7021E030E0B90102C019
:100A4000660F771F8A95E2F7CB01962F9095942336
:100A500091A392A1892B82A378940895282F35EB36
:100A60002303C001112497FF04C080589109892FE6
:100A7000089580589F4FFBCF8091840280FD14C061
:100A800081FD14C082FD16C080918302811581F022
:100A90008E3180F420E5829FC00111246EE170E068
:100AA0000E94711D862F089584E1089588E20895BB
:100AB00088E0089580E508958091840280FD17C044
:100AC00081FD17C082FD19C080918202811599F0C5
:100AD000883298F428E0829FC001112468E270E017
:100AE0000E94711D6115710551F0862F089562E015
:100AF000FCCF64E0FACF61E0F8CF68E0F6CF81E0A8
:100B0000089580913802811559F0E0916002F091CA
:100B10006102309729F00190F081E02D0995089548
:100B200080E00895A3E0B0E0E8E9F5E00C944A1D08
:100B30009C018091F2019091F30182179307A1F03B
:100B40003093F3012093F201E0916002F091610291
:100B5000309751F083E089833B832A830084F185B9
:100B6000E02DCE01019609952396E2E00C94661DD6
:100B7000A3E0B0E0EEEBF5E00C944A1D9C018091FF
:100B8000F0019091F10182179307A1F03093F101E8
:100B90002093F001E0916002F0916102309751F0F2
:100BA00084E089833B832A830084F185E02DCE0194
:100BB000019609952396E2E00C94661D90912B0115
:100BC000911112C0A8EAB1E0EFEF90E02D918217E9
:100BD00051F0EF3F19F4211101C0E92F9F5F9630CA
:100BE000A9F7EF3FC9F408959091950297FFEACFD6
:100BF000E82FE695E695E695803FA8F7F0E0E25508
:100C0000FE4F877021E030E001C0220F8A95EAF79D
:100C10008281822B828308950E2E000CFF0BEA55F1
:100C2000FE4FF8CF90912B01911521F090919502F4
:100C300097FD0CC0E8EAF1E09191891302C0DF0151
:100C40001E9251E0EE3AF507B9F70895E82FE695C0
:100C5000E695E695803FC8F7F0E0E255FE4F8770D5
:100C600021E030E0A90102C0440F551F8A95E2F748
:100C7000CA01809592818923828308952FB7F894C1
:100C800080911F0290912002A0912102B091220236
:100C90002FBF08950E943E0620918702309188025E
:100CA000232B211521F0809314029093150220919B
:100CB000890230918A02232B211521F080931202A0
:100CC00090931302E0916002F0916102309749F035
:100CD00082E0809385020680F781E02D85E892E02E
:100CE00009950895611509F44BC0E3E3E80FE3317A
:100CF00050F4F0E0E75FF14E0C94851D0E943C0536
:100D00008195809388020E944A0608950E943C05BE
:100D1000F8CF0E943C05819580938702F4CF0E9412
:100D20003C05FACF0E945C0580938902ECCF0E94BB
:100D30005C058195F9CF0E945C05819580938A02BC
:100D4000E2CF0E945C05FACF815D990B21E030E093
:100D500001C0220F8A95EAF780918602822B809348
:100D60008602D1CF80918402816080938402CBCFB0
:100D7000809184028260F9CF809184028460F5CFF3
:100D8000409187028D3C59F48091880287FF0DC005
:100D900010928802411559F41092830208C08E3CCB
:100DA00081F48091880218169CF3411581F080919E
:100DB000890290918A02892B8111A5CF109282021B
:100DC000A2CF8F3C41F447FFF0CF10928702809171
:100DD00088028115E0CF803D19F41416B4F3E5CFF5
:100DE00090918902893D29F41916FCF61092890226
:100DF000DCCF8A3D19F497FFD8CFF8CF90918A02C3
:100E00008B3D29F497FFD1CF10928A02CECF8C3D33
:100E100019F41916CCF3C9CF9FE2980F983090F4CB
:100E2000815D990B21E030E0B90102C0660F771FA8
:100E30008A95E2F7CB018095909186028923809371
:100E40008602B3CF8D3D31F4809184028E7F8093F2
:100E50008402ABCF8E3D21F4809184028D7FF7CF49
:100E60008F3D09F0A2CF809184028B7FF0CF2FB706
:100E7000F89460911F02709120028091210290915C
:100E800022022FBF0895CF92DF92EF92FF928091BE
:100E90003802811559F00E9437076B017C01C701A8
:100EA000B601FF90EF90DF90CF9008950E94370732
:100EB000C0903A02D0903B02E0903C02F0903D029C
:100EC000C60ED71EE81EF91EEACF9C014FB7F89454
:100ED00080911F0290912002A0912102B0912202E4
:100EE0004FBF821B930B089587E797E79093010804
:100EF0008093000888E19AE00FB6F894A895809353
:100F000060000FBE90936000FFCF8091EF010895C5
:100F1000FC019B018091E5019091E60186179707FE
:100F200040F0672B29F48091E8008E778093E800E9
:100F3000C90140E0009741F4411106C08091E800EA
:100F400082FF2FC080E00895209100022115A9F1B1
:100F50002530A9F12091E80023FD2DC02091E80063
:100F600022FDECCF2091E80020FFE4CF3091F30088
:100F70002091F200009719F02830310558F041E037
:100F80002830310509F040E02091E8002E772093C9
:100F9000E800D0CF41914093F10001972F5F3F4F80
:100FA000E9CF80910002811541F0853041F08091B8
:100FB000E80083FFC3CF81E0089582E0089583E0D5
:100FC00008958091DF0187FF13C08091E80082FFC0
:100FD00006C08091E8008B778093E80008958091A7
:100FE00000028111F2CF0895809100028115D9F39A
:100FF0008091E80080FFF8CF8091E8008E77ECCFF9
:101000002091E4003091E50095E6A9012091EC00E3
:10101000822F817020FF06C08091E80080FF06C00B
:1010200080E008952091E80022FD1AC0809100021E
:10103000811589F0853089F08091EB0085FD0FC026
:101040002091E4003091E50042175307F9F29A9598
:10105000E1F684E0089582E0089583E0089581E058
:101060000895E8EDF0E080818E7F80831092E200A9
:101070001092DA001092E100A0EEB0E08C91816055
:101080008C9380818F77808319BCA7EDB0E08C9121
:101090008E7F8C9380818F7E80831092DE010895F5
:1010A000FC01AC014C5F5F4F8FEF61E391918927A9
:1010B00028E030E0982F990F87FF09C0892F8627F5
:1010C00021503040B9F7E417F50781F70895892FCB
:1010D000F7CF982F9093E900891771F07091EC0089
:1010E0002091ED005091F00021FD09C09F5F9730E5
:1010F00089F78093E9000895762F242F50E03091EE
:10110000EB003E7F3093EB003091ED003D7F30935C
:10111000ED003091EB0031603093EB007093EC0008
:101120002093ED005093F0002091EE0027FDDECFDC
:101130000895A0E0B0E0EFE9F8E00C94441DC8ED9C
:10114000D0E088818F7E8883E7EDF0E08081816048
:10115000808384E082BF81E08093DE0188818E7F7E
:10116000888302EE10E0F80110821092DA0081EE1E
:10117000C82ED12CF601108288818F7788838881D0
:101180008068888388818F7D888319BC10920002D3
:101190001092DD011092FF011092DC0190EEE92E19
:1011A000F12CF70180818B7F808388818160888327
:1011B00042E060E080E00E946908F60180818E7F55
:1011C0008083F80180818160808380818860808352
:1011D000F70180818E7F8083888180618883CDB78D
:1011E000DEB7E8E00C94601DE091990290919802BE
:1011F00027E0E91302C080E00895AE2FB0E02E9FF3
:10120000F0011124E656FD4F3181361306C03081BE
:10121000381303C03581341304C0FD013196E770E3
:10122000E8CF81E008950F931F93CF93DF938B0155
:10123000EA0190910002943059F58093E9008FEF14
:101240009091E80095FD06C095ED9A95F1F70000A4
:101250008A95B1F78091E80085FF1AC00E940008C6
:10126000811111C08091E80085FD06C08091E800E1
:101270008E778093E800F2CFF80181918F018093FF
:10128000F100219779F78091E8008E778093E8004C
:10129000DF91CF911F910F910895CF93DF93D82FB6
:1012A000C92F48E050E0682F792F81E00E94130990
:1012B00088E0ED2FFC2FA7EEB1E001900D928A950A
:1012C000E1F7DF91CF910895BC0140E250E082E068
:1012D0000E9413090895BC0146E050E082E00E949C
:1012E00013090895BC0143E050E082E00E94130915
:1012F0000895A0E0B0E0EFE7F9E00C94421D182F4C
:10130000092FB62EA72E7A018091D8019AE0C92E16
:10131000D12C8A3018F0CC24C394D12CC1E0D0E079
:101320006B2D7A2D812F902FF7010995811116C011
:101330002196CC16DD0694F0CC9FC001CD9F900D78
:10134000900D112420E030E045E34A95F1F70000CC
:101350002F5F3F4F28173907B9F7E2CFCDB7DEB778
:10136000EAE00C945E1D9091960292FB222720F9F0
:10137000281779F080FB92F990939602609195027C
:101380007091960284E090E00E94DB1D82E00E9452
:101390002902089580912B01811559F180919502C0
:1013A00087FF27C00E9441028093AF0140E250E0D6
:1013B00060E472E08EEA91E00E94F11D892BC1F099
:1013C00080E2EEEAF1E0A0E4B2E001900D928A95AD
:1013D000E1F7E0916002F0916102309749F086E018
:1013E0008093AE010480F581E02D8EEA91E00995AD
:1013F00008950E9441028093A60148E050E062E611
:1014000072E086EA91E00E94F11D892B89F388E061
:10141000E6EAF1E0A2E6B2E001900D928A95E1F7EA
:10142000E0916002F0916102309711F30280F38144
:10143000E02D86EA91E0DBCFCF93C82F8115D9F05C
:101440008CEF8C0F813AA8F580912B01811521F04A
:101450008091950287FD11C0E8EAF1E08EEA91E003
:101460002191C21701F18E179F07D1F78C2F0E948F
:10147000DE050E94CA09CF910895EC2FE695E69506
:10148000E695F0E0E255FE4F828190E04C2F4770E8
:1014900021E030E002C0220F331F4A95E2F7822399
:1014A0009323892B19F38C2F0E9412060E94CA09DC
:1014B000DDCF80E28C0F883068F4C77081E090E067
:1014C00001C0880FCA95EAF7C0918D02C82BC0935E
:1014D0008D02CFCF8BE58C0F833038F42C2F245224
:1014E000330BC9010E949205C6CFE8E5EC0FEB3142
:1014F00050F4F0E0EE0FFF1FE259FE4F8081918122
:101500000E94B805B8CF83E38C0F833108F0B3CFC6
:1015100061E08C2F0E947206AECF811581F19CEFA5
:10152000980F913A28F40E9412060E94CA09089561
:1015300090E2980F983050F4877091E001C0990FB5
:101540008A95EAF7892F0E946802EFCF9BE5980FF2
:10155000933028F480E090E00E949205089598E589
:10156000980F9B3128F480E090E00E94B805089520
:1015700093E3980F933118F460E00E947206089587
:10158000811539F090918D02892B80938D020E94F4
:10159000CA090895811521F00E9468020E94CA09B3
:1015A000089510928D0280912B01811539F180915F
:1015B000950287FF23C0E0EBF1E08EE1DF011D9291
:1015C0008A95E9F780E090E00E94920580E090E043
:1015D0000E94B805109297020E94CA0986E0E5E8C9
:1015E000F2E0DF011D928A95E9F7109283021092D2
:1015F0008202109284020E944A060895E8EAF1E00D
:1016000086E0DCCF0E94D10A2FEF84E39CE02150DA
:1016100080409040E1F700C0000088E19AE00FB6FA
:10162000F894A895809360000FBE90936000FFCF60
:10163000AAE2B0E0EEE1FBE00C94491D8FED91E0F1
:10164000FC0101962091F100208321E0873E920762
:10165000B9F78091E001893009F456C0C8F48230AE
:1016600009F4B2C0833009F481C0813071F18091F6
:10167000E80083FFE6C08091DF019091E0019A309D
:1016800008F0DFC0E92FF0E0E45EF14E0C94851D18
:101690008A3009F488C08B3051F78091DF018132A4
:1016A00031F78091E3019091E401892B01F780915A
:1016B000E800877F8093E8000E94E1078091E101C4
:1016C00080932B010E94D10AD2CF8091DF01813A11
:1016D00071F68091E800877F8093E8008091E301B4
:1016E0009091E401892B61F060E080E090E070E08F
:1016F0000E9488078091E8008B778093E800B7CF3D
:1017000068E087EE91E0F3CF8091DF01813209F04C
:10171000AECF8091E3019091E401029708F0A7CF4A
:101720008091E800877F8093E8008091E80082FF45
:1017300018C09091F3008091F200029731F48091EB
:10174000F100813011F0863021F48091F100809316
:10175000EF018091E8008B778093E8000E94E10719
:1017600086CF809100028111E0CF81CF8091DF018F
:10177000813A09F07CCF8091E3019091E401892BBB
:1017800009F075CF8091E800877F8093E800809111
:10179000E80080FFFCCF80912B018093F1008091C5
:1017A000E8008E77D9CF8091DF01813209F05FCFD9
:1017B0008091E800877F8093E8000E94E107809194
:1017C000E2018093DB0153CF8091DF01813A09F080
:1017D0004ECF8091E800877F8093E8008091E800F9
:1017E00080FFFCCF8091DB01D8CF803889F0823830
:1017F00041F58091E3018F70873018F58093E900FF
:101800008091EB0085FB882780F91092E90006C0E3
:101810008091FF01880F9091DC01892B9091E80065
:10182000977F9093E8008093F1001092F1008091EF
:10183000E8008E7723C0811116C08091E1018130CC
:1018400011F18091E80083FF0AC08091E800877F52
:101850008093E8008091EB0080628093EB00AA9671
:10186000E3E00C94651D823061F78091E101811500
:1018700089F01092E9008091E800877F8093E8006A
:101880000E94E107DECF81E0933009F080E0809391
:10189000FF01EFCF8091E3018F702FEF280F2630EB
:1018A00080F68093E9002091EB0020FFE2CF933097
:1018B00031F48091EB0080628093EB00DACF90915D
:1018C000EB0090619093EB0021E030E0A90102C0B1
:1018D000440F551F8A95E2F74093EA001092EA0000
:1018E0008091EB008860E8CF8111ABCF1091E101CE
:1018F0001F778091E3008078812B8093E3008091B3
:10190000E800877F8093E8000E94E1078091E8006B
:1019100080FFFCCF8091E30080688093E30083E048
:10192000111101C082E0809300028BCF8058823079
:1019300008F087CF2091E1013091E2012C3D53E086
:10194000350799F583E08A838AE289834FB7F89453
:10195000DE01139620E03EE051E2E32FF0E05093E9
:101960005700849120FF03C082958F703F5F8F7076
:101970008A30C8F0895C90E08D939D932F5F24316D
:1019800061F74FBF8091E800877F8093E8006AE2AB
:1019900070E0CE0101960E9488078091E8008B7765
:1019A0008093E8004ECF805DE6CF832F9927833068
:1019B000910529F160F48130910509F476C0029710
:1019C00009F03FCF8BE390E0E6EAF1E02DC02091F3
:1019D000E3013091E4018132910509F45AC0829704
:1019E00009F02FCF2115310509F469C021303105E7
:1019F00009F027CF86EB90E0ECEAF0E015C0C901D2
:101A000099272130B1F18230910509F43AC0892B30
:101A100009F017CFE3E1F2E0E4918E2F90E0E3E1EB
:101A2000F2E0009709F40DCF2091E800277F209382
:101A3000E8002091E5013091E6018217930708F450
:101A40009C0140E02115310509F03EC041113CC028
:101A50008091E80082FDA1CF80910002811509F4F8
:101A60009CCF853009F499CF8091E80083FFF0CFB7
:101A700094CFE1E0F2E0E4918E2F90E0E1E0F2E03B
:101A8000D0CFE3EFF1E0E4918E2F90E0E3EFF1E0CF
:101A9000C8CF2115310571F02130310509F0D1CEC3
:101AA00089E090E0E1EDF1E0BFCF82E190E0E1EE8E
:101AB000F1E0BACF89E090E0E8EBF1E0B5CF84E463
:101AC00090E0E2E6F1E0B0CF80910002811509F4E8
:101AD00064CF853009F461CF8091E80083FD5DCF4C
:101AE0008091E80082FDB4CF8091E80080FFAACF0A
:101AF0009091F3008091F2002115310519F08830A2
:101B0000910550F041E0089709F040E08091E8002D
:101B10008E778093E80096CF44914093F100319600
:101B2000215031090196E8CF803809F08ACE8091A2
:101B3000E800877F8093E8008091DD018093F100C9
:101B400076CE81117ECE1091E101123008F079CE6F
:101B50008091E800877F8093E8001093DD010E9468
:101B6000E107111581F084E08093000242E061EC0E
:101B700081E00E94690842E261EC82E00E9469080B
:101B8000809100025ECE8091E30087FDECCF81E082
:101B9000EBCFACE0B0E0EFECFDE00C943D1DFE01BE
:101BA000319688E0DF011D928A95E9F78CE2E82EF4
:101BB00081E0F82E8F013F01AA24A394B12C26E3E3
:101BC000822E21E0922EF70181917F018F3F09F44F
:101BD0003EC0F894E82FE295EF70F0E021A18F70FD
:101BE000A50102C0440F551F8A95E2F7CA01922F42
:101BF000982B91A392A18095892382A3789400C009
:101C0000E0E3F1E031E0512C21912F3F79F0A22F58
:101C1000A295AF70A05EB0E08C9190E02F7002C0F2
:101C2000959587952A95E2F780FF80C080E0582A35
:101C3000330F8E169F0641F7F70182918F3F11F007
:101C40000E94150550EA5A95F1F7D8015C920F5F92
:101C50001F4FB0E3EB16B1E0FB0609F0B4CF48E04C
:101C600050E0B30184EF91E00E94F11D6C01892BDB
:101C700041F088E0F301A4EFB1E001900D928A9564
:101C8000E1F70091FD0110E00F5F1D4FC114D10479
:101C900009F44EC081E08093D7010E943E069093E4
:101CA000D6018093D50180913802811509F497C03F
:101CB0007E01E9E0EE0EF11C84E0D7011D928A95C9
:101CC000E9F78091D8018A3008F054C04AE95FE012
:101CD000B701C8010E947909811509F46EC041E479
:101CE00050E1B701C8010E947909811509F465C066
:101CF00043E45FE0B701C8010E947909811509F446
:101D00005CC01092D8018091FC0190E044E050E06A
:101D1000B7018F5F9D4F0E94F11D21E02093D401F8
:101D2000892BE9F52C96EFE00C94591D832F7FCF7A
:101D30008091D701811509F4B6CF8091D50190919A
:101D4000D6010E946507059708F4ADCF44E050E046
:101D500064EF71E0C8010E94F11D892B41F084E01D
:101D6000E4EFF1E0D80101900D928A95E1F710922D
:101D7000D70199CF8091D2019091D3010E9465073C
:101D8000843F914008F0A2CF8091D401811551F297
:101D900084E0F70111928A95E9F71092D401E0915D
:101DA000FC01F0E0EF5FFD4F89859A85AB85BC852E
:101DB00080839183A283B383B5CF8091D8018F3F75
:101DC00039F40E943E069093D3018093D201DCCF78
:101DD0008F5F8093D8018A3008F495CFF2CFE090DE
:101DE000FC01F12CA7014F5F5D4F7A01F801808162
:101DF0009181A281B3818093240290932502A093C4
:101E00002602B093270284E292E00E945008809359
:101E100023028091280290912902A0912A02B09178
:101E20002B02F70180839183A283B383C0902C029D
:101E3000D0902D02E0902E02F0902F028091CE01E2
:101E40009091CF01A091D001B091D101C816D906CF
:101E5000EA06FB0609F466CFC092CE01D092CF010C
:101E6000E092D001F092D1010E943707C61AD70A3A
:101E7000E80AF90AC0923A02D0923B02E0923C0290
:101E8000F0923D024FCFA4E0B0E0E9E4FFE00C9413
:101E9000491D4091170250911802609119027091EA
:101EA0001A022FB7F89480911F0290912002A091FE
:101EB0002102B09122022FBF841B950BA60BB70BFA
:101EC00011E084369105A105B10578F10E94430720
:101ED000DC01CB010296A11DB11D89839A83AB83DE
:101EE000BC8380912401909125018D5D9D4F2091AF
:101EF0002301422F50E0253010F044E050E0BE01B5
:101F00006F5F7F4F0E94FE1D83E090E00E94C61C21
:101F1000182F811551F00E943707609317027093B4
:101F200018028093190290931A02812F2496E3E0FD
:101F30000C94651DEF92FF921F93CF93DF9300D017
:101F400000D00F92CDB7DEB77B0180E090E00E9419
:101F5000C61C182F811509F46DC080910E01482F01
:101F600050E0811511F041E050E060910F01709157
:101F700010016D5D7D4FCE0105960E94FE1D4091C2
:101F800034025091350260913602709137022FB7BA
:101F9000F89480911F0290912002A0912102B091AB
:101FA00022022FBF841B950BA60BB70B843691051D
:101FB000A105B10538F484E292E00E9450089D81A9
:101FC0008917C1F181E090E00E94C61C811509F4D7
:101FD0003FC080911601482F50E0853010F044E05A
:101FE00050E060911701709118016D5D7D4FCE0139
:101FF00001960E94FE1D84E292E00E9450089D819D
:10200000891326C00E94370760933402709335020B
:10201000809336029093370289819A81AB81BC818B
:102020008093300290933102A0933202B093330236
:1020300081E00FC08091240290912502A091260298
:10204000B091270289839A83AB83BC831111E4CFBB
:1020500080E04091300250913102609132027091E3
:102060003302F70140835183628373830F900F9093
:102070000F900F900F90DF91CF911F91FF90EF90F5
:1020800008950F931F93CF93DF93D82FC92F44E068
:1020900050E068E272E00E94F11D8C0140911B0249
:1020A00050911C0260911D0270911E022FB7F8948E
:1020B00080911F0290912002A0912102B0912202F2
:1020C0002FBF841B950BA60BB70B84369105A1057A
:1020D000B10510F4012B11F180911C0190911D01AB
:1020E0008D5D9D4F20911B01422F50E0253010F057
:1020F00044E050E06D2F7C2F0E94FE1D82E090E0B6
:102100000E94C61C811559F00E94370760931B027C
:1021100070931C0280931D0290931E0281E0DF9158
:10212000CF911F910F910895FF920F931F93CF931B
:10213000DF93C62FD42F122F8115A9F060938B0245
:102140000E943E069093DA018093D901C77081E026
:1021500001C0880FCA95EAF70E94C00ACDB7DEB762
:10216000E5E00C94631D80918B02681333C080916D
:10217000D9019091DA010E946507883C910550F5DC
:1021800000E20D0FCD17A9F0C770FF24F3948F2D37
:1021900001C0880FCA95EAF70E94CA0A083048F4BD
:1021A0008D2F877001C0FF0C8A95EAF78F2D0E9452
:1021B000C00A812F0E941C0A812F0E948D0A0830BC
:1021C00068F6D77081E001C0880FDA95EAF70E94BF
:1021D000CA0AC4CFC77081E001C0880FCA95EAF768
:1021E000F6CFA0E0B0E0E7EFF0E10C94441D7C01F5
:1021F000FC018481811531F161E0C7010E94B804BE
:10220000EC01F7018581FE01E851FC47E730F1055B
:10221000A8F5EA5DF14E0C94851D26E241EE61EED3
:102220000E949410809194028770811559F0F701F3
:102230008581811539F08091960282FF03C082E08A
:102240000E942902CDB7DEB7E8E00C94601D27E2BA
:1022500045EE65EEE5CF26E241EE60EEE1CF27E206
:1022600045EE64EEDDCF26E241EE62EED9CF27E205
:1022700045EE66EED5CF28E241E0EBCF811509F4BB
:1022800071C310928B02CE019057839708F077C3E9
:1022900084E090E00E94A71D90939602809395029F
:1022A000FE01E150F047E232F10520F4E35DF14E2A
:1022B0000C94851D809195028160809395026091B8
:1022C00095027091960284E090E00E94DB1D0E94CE
:1022D000D10AA8CF80919602886080939602EFCFB2
:1022E000809195028260E9CF809195028460E5CF6C
:1022F000809195028860E1CF809196028160EDCF58
:10230000809196028260E9CF809195028061D5CF5D
:10231000809195028062D1CF809195028064CDCF6B
:102320000E94D10A809195028068C7CF8091950262
:102330008C60C3CF809196028360CFCF809195024D
:102340008E7FBBCF80919602877FC7CF8091950209
:102350008D7FB3CF809195028B7FAFCF8091950217
:10236000877FABCF809196028E7FB7CF8091960208
:102370008D7FB3CF809195028F7E9FCF8091950204
:102380008F7D9BCF809195028F7B97CF0E94D10A42
:10239000809195028F7791CF80919502837F8DCF29
:1023A000809196028C7F99CF80919502992782FF28
:1023B000939590FB82F990FB83F97FCF80919602F1
:1023C000982F909590FB80F990FB81F986CF9091A2
:1023D0009502892F8F7B96FF80646FCF0E94D10A70
:1023E00090919502892F97FB87F9805866CF61E01D
:1023F0008EE090E00E94BD1D62CF60E0F9CF909129
:102400009502892F8F7E94FF806157CF909195021E
:10241000892F8E7F90FF816050CF90919602892FF7
:10242000877F93FF886059CF89E2BBC289E2A4C24B
:10243000CA35FCE7DF0709F483C008F05BC0C13090
:102440003CE7D30709F47AC0C3308CE7D80709F416
:102450006FC0C115DC4709F45EC0F70185810081BA
:102460001181811509F470C0C8010E948404C82F2D
:10247000682FC8010E94B701B8018C2F0E9470021A
:102480000E948103D82FC92FF701D580C680C2943E
:102490008FE0C8228091940287708115F9F00D2D8C
:1024A000D114E9F0892F807F803461F080E28D0FB4
:1024B0008830A0F0892F807E803221F4D23070F0F5
:1024C000C11461F08091960282FF08C082E00E94F0
:1024D000290280919402877001E0811100E0EC2FC5
:1024E000E295EF70C03C08F095C0F0E0E15BF14E82
:1024F0000C94851DCB35ECE7DE0721F18091960227
:10250000002482FF0394802DCC35DC4709F0A5CF51
:102510000E94B309A2CF0E94D10A2FEF34E38CE0CE
:10252000215030408040E1F700C000000E94740755
:102530006FEF7FEF80E090E00E94DB1D0E94020BB6
:1025400081E0E6CF80E0E4CFC8010E94EC01C82F13
:1025500093CF1C2F1F70C03110F01295107FD11433
:10256000B9F0111569F080E28D0F883010F0D111AB
:1025700009C080918D02812B80938D020E94CA092F
:102580008D2F40C080919702812B80939702F6CFC8
:102590008D2F0E948D0A1115E9F180E28D0F883090
:1025A00010F0D11104C0812F0E94680206C010955E
:1025B000809197028123809397020E94CA092AC0C2
:1025C0001C2F1F70C07FC03211F01295107FD115E3
:1025D00049F0D13009F46BC0D11409F477C0C114AB
:1025E000C9F1CECF8091960282FD30C0D11469F03E
:1025F000111539F080918D02812B80938D020E94FC
:10260000CA0980E00E941C0A05C080E00E948D0A71
:102610001111C9CF0115A9F08091940280FD11C05C
:10262000F70115828695869586950E949501C701CA
:102630000E94F110809194028695869586950E945D
:10264000A50160E0C7010E94B804FCCDD11499F047
:10265000C11004C0812F0E94C00ADCCFF1E0CF126C
:10266000D9CF80918E02912F9823191799F2812B3F
:1026700080938E02CFCFC110CDCF812F0E94CA0A86
:1026800090918E02812F8923811529F0812F8095C9
:10269000892380938E0280918F02912F9823911528
:1026A00009F4B8CF1095182310938F02B3CFD1142B
:1026B00029F026E0C21608F0ADCFCCCF35E0C31626
:1026C00008F0A8CF812F0E94CA0AA4CFC114D1F369
:1026D000D93349F48FEF97EEE3E081509040E0402A
:1026E000E1F700C000008D2F0E948D0A93CF8C2F40
:1026F000869586958370811569F0813009F08ACFBF
:102700008D2F9C2F9370D11002C080E090E00E942A
:10271000B80580CF8D2F9C2F9370D11002C080E020
:1027200090E00E94920576CF6D2D8D2F0E9472064B
:1027300071CF8C2F8370811142C0D1102FC04D2FCB
:10274000429546954770440F440F2D2F2F7030E06F
:10275000042E02C0220F331F0A94E2F780E090E0BB
:10276000D4FF09C08FE090E002C0880F991F4A95FE
:10277000E2F780959095C695C695C370C230B1F0CA
:10278000C33089F04091900250919102C13049F0DC
:10279000822B932B842395230E948B010E94810519
:1027A00039CF242B352B822B932BF6CF822B932BD7
:1027B000209190023091910282279327EDCFD1147E
:1027C00091F1C0FFEBCF4D2F429546954770440FD6
:1027D000440F2D2F2F7030E0042E02C0220F331F24
:1027E0000A94E2F780E090E0D4FF09C08FE090E027
:1027F00002C0880F991F4A95E2F780959095C6957B
:10280000C695C370C230C1F0C33099F040919202B6
:1028100050919302C13059F0822B932B842395233E
:102820000E949001BBCF823008F4B8CFCCCF242BCC
:10283000352B822B932BF4CF822B932B209192025A
:102840003091930282279327EBCFCF70D11439F0C8
:102850008C2F0E9495018D2F0E94C00A9FCF8D2F33
:102860000E94CA0A8C2F0E94A50198CFD23FB1F1D5
:1028700070F4D03FC9F0D13F91F0D11409F45EC09B
:10288000C11409F458C08D2F0E941C0A87CFD33F72
:1028900061F1D43F91F79091960292FD34C08C2F54
:1028A0008F71D11401F31EC0D114A9F0F5E0CF1639
:1028B00008F074CFCF7181E090E09C0102C0220F3C
:1028C000331FCA95E2F7E901809192029091930239
:1028D00082279D27A5CF36E0C316EACF8C2F8F71B4
:1028E000D110C1CF0E94950159CF80E090E0D11462
:1028F00009F496CFCF7181E090E002C0880F991F54
:10290000CA95E2F78DCFD11461F08C2F8F7192FFB1
:10291000E9CF982F990F990F990F93609093940294
:10292000E1CF81E00E94290282E0C81608F436CF88
:102930000E94290233CF8C2F8F71D4CFC11479F02C
:10294000D93349F49FEFE7EEF3E09150E040F040D7
:10295000E1F700C000008D2F0E948D0A1FCF8C2F41
:102960008F7181CFC631DC4709F077CD80918C0221
:10297000811509F45BCD85E30E94120614C0C631AF
:102980002CE7D20709F054CD80918D028A7A91E02C
:10299000811101C090E090938C02811509F444CD1F
:1029A00085E30E94DE050E94CA093CCC8091D802D2
:1029B000803178F48091D702811559F0E091990225
:1029C000209198023091D3024091D20257E02E1309
:1029D00001C008956E2F70E05E9FF0011124DF01A9
:1029E000A656BD4F14968C911497811561F11196DE
:1029F0008C911197831327C08C91841324C0159652
:102A00008C91159781111FC012968D919C91A09168
:102A1000D402B091D5028A1B9B0B883C910598F497
:102A20008091D8028F7080618093D802E056FD4F6C
:102A300080818F708061808382ED92E00E94F1102E
:102A40000E941F020895FB013196E770C0CFADE0F0
:102A5000B0E0EDE2F5E10C943F1D8C0186E0F80159
:102A6000DE01189601900D928A95E1F7F801F58044
:102A7000C48082ED882E82E0982E7090D60271106C
:102A800020C0C114D9F0F11409F41CC1C8010E947E
:102A9000E704811509F416C187E0F801D40101901B
:102AA0000D928A95E1F7F1E0CF1206C08091D20233
:102AB0009091D3020E94D8040E94D614FF24F3946C
:102AC00054C0E080A280B380D090D7028091D4021D
:102AD0009091D5029501281B390BD11409F4BAC085
:102AE000283C310508F090C0C11441F39091D30205
:102AF000C1808091D802803108F058C0C91214C03A
:102B00009091D2029E1110C0F1104AC08F70806166
:102B10008093D80282ED92E00E94F1108091D80259
:102B2000F8018683F12C21C0F1103AC040E06C2DF1
:102B30008E2D0E94F40840E06C2D8E2D0E94F4082A
:102B4000F82E8111EFCF888599850E94D804292F0E
:102B500022952F70903470F49F702230A0F0911560
:102B6000B1F0F8019681903190F48F2D2D96EDE023
:102B70000C945B1D2A5F2F70223068F0C8010E9400
:102B8000F110FD2CF2CF911511F0811571F3805EDB
:102B9000883058F3F3CF803F40F3815F8330F9CF23
:102BA0008091D80281608093D802BCCFC91207C03F
:102BB0009091D2029E1103C0F11409F46CC0C801B7
:102BC0000E94E704811509F47DC0F11409F47AC06C
:102BD0008091D802803278F02091D2023091D302D5
:102BE0003A832983BC82AB827D821E828F83CE0191
:102BF00001960E94F11087E0F801A2EDB2E0019089
:102C00000D928A95E1F758CF8091D802803150F427
:102C100082ED92E00E94F11087E0F40111928A9512
:102C2000E9F780CFC11409F449CF2091D3029181F3
:102C30002913C5CF9091D2029E11C1CFF110BFCF01
:102C40008683C8010E94F11087E0F40111928A95F1
:102C5000E9F734CF283C3105F8F6C11409F42ECF3A
:102C6000F11481F19091D3028181981321C0809158
:102C7000D2028E111DC08091D80280FD10C080311B
:102C800070F08683807F803F39F08681982F907F17
:102C9000905F8F70892B8683C8010E94F11087E0B6
:102CA000F801A2EDB2E001900D928A95E1F706CF0E
:102CB000C8010E94E70481119ECF8091D8028160F3
:102CC0008093D802C8010E94F110F8CEABE1B0E0C9
:102CD000ECE6F6E10C94481D4E8B5F8B688F798F84
:102CE0008A8F192F9B8F9111109297021D8A86E06F
:102CF000FE017696DE011F9601900D928A95E1F70E
:102D00000A8D011539F00B8B1C8B61E0CE010F96FB
:102D10000E94B8040B8B1C8B87E0FE013F96DE01FE
:102D2000189601900D928A95E1F7CE0108960E94BF
:102D30002715811128C0209198023091990287E0CF
:102D4000FE013896DE01119601900D928A95E1F709
:102D50008C858115C1F0822F90E0019687709927AC
:102D600038171906D9F097E0929FD0011124A65682
:102D7000BD4FFE01319601900D929A95E1F7809337
:102D800098020E941F0217E0809199029091980288
:102D9000891312C06B96E4E00C94641D0E94D10A62
:102DA000109298021092990287E0E2EDF2E0DF01C2
:102DB0001D928A95E9F7E7CF189FC0011124865626
:102DC0009D4F0E942715811529F38091990290E06B
:102DD00001968770992780939902D6CFA6E0B0E03C
:102DE000E4EFF6E10C94481D0E943E068C018091B0
:102DF0003E0290913F028017910779F019821A8262
:102E00000E943E06BC0149815A8180E090E00E9408
:102E1000661610933F0200933E022696E4E00C945F
:102E2000641DCDB7DEB72C970FB6F894DEBF0FBE8A
:102E3000CDBF85B7806885BF85B7806885BF84B7FB
:102E4000877F84BF0FB6F894A89580916000886151
:102E500080936000109260000FBE80E890E00FB693
:102E6000F89480936100909361000FBE83E195E038
:102E70009093A5018093A4010E9431080E949908B3
:102E80008091E20084608093E20078948091000257
:102E90008115A1F08091E900D090EC008F70D7945B
:102EA000DD24D794D82A1092E9008091E80083FDB0
:102EB0000E94180B8D2D8F708093E90082E084BDF5
:102EC00093E095BD9AEF97BD80936E0010923A0201
:102ED00010923B0210923C0210923D028091D80069
:102EE00080618093D8002AE12A95F1F700C0809193
:102EF000D900982F9170D92E80FD04C00E9431080E
:102F000010920002D0923802D0923902D092000181
:102F1000D1100E94D81B809100018091000191E0A6
:102F20008927880F880F8093FD0194E0981B909368
:102F3000FC0184E90E94150586E60E94150587E9D3
:102F40000E94150586EC0E94150560E3C62E61E01F
:102F5000D62E76E3A72E71E0B72ED6018D916D01A6
:102F60008F3F11F00E941505AC14BD04B1F788E045
:102F7000E1E0F2E0DF01282F1D922A95E9F7E4EF66
:102F8000F1E0DF011D928A95E9F780E090E00E9470
:102F9000A71D853E9E4F09F461C065EE7EEF80E07F
:102FA00090E00E94DB1D60E082E090E00E94BD1D89
:102FB00081E090E0909391028093900261E083E041
:102FC00090E00E94BD1D60E074E184E090E00E940A
:102FD000DB1D60E086E090E00E94BD1D60E087E0C0
:102FE00090E00E94BD1D40E050E0BA0188E090E012
:102FF0000E94CF1D60E083E290E00E94BD1D60E072
:103000008CE090E00E94BD1D60E08DE090E00E94A9
:10301000BD1D19821A821B821C821D821E821F8284
:10302000188648E050E067E170E0CE0101960E940A
:10303000AD1D40E050E0BA018FE190E00E94CF1D4D
:1030400040E050E0BA018FE090E00E94CF1D40E0E8
:1030500050E0BA0183E190E00E94CF1D82E090E051
:103060000E949F1D8093090284E090E00E94A71DAA
:1030700090939602809395020E94C90DEFEFF6E7B8
:1030800021E0E150F0402040E1F700C000000E9444
:10309000C90DE091390281E0E827EE0FEE0FF0E074
:1030A000EF5FFD4F808181FF08C06FEF7FEF80E011
:1030B00090E00E94DB1D0E94740783E090E00E9474
:1030C0009F1D90E00E948B0180913802811102C007
:1030D0000E94DB1B81E091E090936102809360028B
:1030E000CE01019648E1642E712C59E0852E52E004
:1030F000952E89879A878091000220E4D22E32E1B2
:10310000C32E853009F480C00E94C90D8AE0C82E04
:1031100082E0D82E91E0A92E92E0B92ED501F601D9
:1031200091918D9122E0E231F20709F477C098176E
:10313000B9F3809138028C87512CD5014D905D01F7
:10314000F60181916F01841549F184258B87312C1B
:10315000222423948B8582218115C9F0FC85F115E9
:10316000B1F039825A820E943E069C838B8321E013
:103170002D8391E0842D8221811101C090E09E83F6
:1031800049815A816B817C818D810E9466163394BE
:10319000220C86E03812DECFF6014292539498E07A
:1031A0005912CBCF0E9443073DC08091000284306A
:1031B00009F11092FE010FB6F894A8956092600094
:1031C0000FBED092600083B7817F846083BF83B7D6
:1031D000816083BF7894889583B78E7F83BF0FB655
:1031E000F894A895809160008861809360001092A7
:1031F00060000FBE0E94C90DE1E0F2E081918111F3
:10320000F4C08E169F06D1F780910002853009F434
:10321000CCCF0E94D10A0E94810576CF981389CF26
:103220000E94EE1686E0E5E8F2E0A985BA850190F5
:103230000D928A95E1F740908602B0908702D09077
:103240008802A0908902C0908A0210928702109290
:1032500088021092890210928A028D2D8B29811585
:1032600009F43FC080911402909115020E946507F5
:103270008C0180918302811509F4B2C005311105DA
:1032800080F18F3F19F08F5F80938302B11459F062
:103290000E943C0591E01B140CF09FEF899F802D4C
:1032A000112480938702D11459F00E943C0591E0CB
:1032B0001D140CF09FEF899F802D112480938802AC
:1032C00080918702811569F050908802511449F06D
:1032D0000E942E0580938702852D0E942E058093E3
:1032E00088028C2D8A29811509F440C08091120230
:1032F000909113020E9465077C01809182028115E2
:1033000009F468C0A1E5EA16F10480F18F3F19F0D5
:103310008F5F80938202A11459F00E945C0591E0B6
:103320001A140CF09FEF899F802D1124809389023D
:10333000C11459F00E945C0591E01C140CF09FEF41
:10334000899F802D112480938A02809189028115A2
:1033500069F0A0908A02A11449F00E942E05809382
:1033600089028A2D0E942E0580938A02809186020E
:10337000841119C080918702811511F08B1113C03F
:1033800020918802211511F0D2120DC090918A026D
:10339000911511F0C91207C030918902311103C093
:1033A000822B892B81110E944A0686E0E985FA85E5
:1033B000A5E8B2E001900D928A95E1F70E9481059F
:1033C00090911602891709F496CE809316020E94F6
:1033D000370791CEBBE0EB16F10408F099CFC6CFCA
:1033E0000B30110508F04FCF7CCF8091FF01811584
:1033F00009F40ACF80E189BDC9BC09B400FEFDCF44
:103400008091D8008F7D8093D8008091E000826009
:103410008093E0008091E00081FDFCCF0E94D10A02
:10342000F3CE1F921FB61F9211248F939F93AF93D9
:10343000BF938091FE01811113C080911F02909172
:103440002002A0912102B09122024196A11DB11D3E
:1034500080931F0290932002A0932102B093220236
:10346000BF91AF919F918F911F901FBE1F90189594
:1034700078941F921FB61F9211248F939F93AF933E
:10348000BF9380911F0290912002A0912102B091E0
:1034900022020196A11DB11D80931F02909320026C
:1034A000A0932102B0932202BF91AF919F918F917F
:1034B0001F901FBE1F9018951F920F920FB60F926C
:1034C00011242F933F934F935F936F937F938F9329
:1034D0009F93AF93BF93EF93FF938091E10082FF9F
:1034E00009C08091E20082FF05C08091E1008B7FDE
:1034F0008093E1008091DA0080FF24C08091D800A1
:1035000080FF20C08091DA008E7F8093DA00809166
:10351000D90080FF9BC080E189BD82E189BD09B4EB
:1035200000FEFDCF81E0809300028091DE018111D9
:1035300009C00E9431080E9499088091E2008460CD
:103540008093E2008091E10080FF17C08091E2004B
:1035500080FF13C08091E2008E7F8093E200809113
:10356000E20080618093E2008091D80080628093C5
:10357000D80019BC85E0809300028091E10084FFAF
:1035800029C08091E20084FF25C080E189BD82E1ED
:1035900089BD09B400FEFDCF8091D8008F7D809356
:1035A000D8008091E1008F7E8093E1008091E2005D
:1035B0008F7E8093E2008091E20081608093E20040
:1035C0008091DD01811509F447C084E080930002F9
:1035D000809100028091E10083FF27C08091E2008A
:1035E00083FF23C08091E100877F8093E10082E028
:1035F000809300021092DD018091E1008E7F809324
:10360000E1008091E2008E7F8093E2008091E200F1
:1036100080618093E20042E060E080E00E946908FF
:103620008091F00088608093F000FF91EF91BF914E
:10363000AF919F918F917F916F915F914F913F914A
:103640002F910F900FBE0F901F90189519BC1092DC
:1036500000021092DE0176CF8091E30087FF02C066
:1036600083E0B4CF81E0B2CF1F920F920FB60F92DA
:103670001124EF92FF920F931F932F933F934F9339
:103680005F936F937F938F939F93AF93BF93CF93EA
:10369000EF93FF9309EE10E0F8018081C091EC00F8
:1036A0008F70C795CC27C795C82B108280EFE82E66
:1036B000F12CF7018081877F808378940E94180B1A
:1036C000F8011082F701808188608083CF70F80153
:1036D000C083FF91EF91CF91BF91AF919F918F9157
:1036E0007F916F915F914F913F912F911F910F911A
:1036F000FF90EF900F900FBE0F901F9018958EE1E6
:103700004A9B02C08A95E1F74A9BFECF08955A98DA
:1037100080E28A95F1F75A9A0895FC013BE03A95C8
:10372000F1F798E020E080E031E040E14A95F1F7E0
:10373000880F4A9B02C08160232742E04A95F1F737
:10374000000040E14A95F1F79A9579F790E19A9552
:10375000F1F799B132E03A95F1F7000040E14A956E
:10376000F1F792FB992790F992272081920F90838D
:103770000895A1E0B0E0EFEBFBE10C94461D198247
:103780008C017C01E60EF11C0E947F1BCE0101968C
:103790000E948D1BF80181938F01EE15FF05A1F7A3
:1037A00081E09981911180E02196E6E00C94621D00
:1037B000529A5A9A089552985A9AEA9AE9E6F0E08B
:1037C00080818F7C808308956150770B91E001C0E8
:1037D000990F6A95EAF7692F90E021E0611108C01E
:1037E000911599F05A9A80E28A95F1F75A980895BE
:1037F000362F3823311539F05A9A922730E23A950C
:10380000F1F76695EBCF5A98F9CF5A98ECCFFF9223
:103810000F931F93CF93DF93EC018C01060F111DC3
:10382000F9900E94871B68E08F2D0E94E41BC0174F
:10383000D107B1F7CDB7DEB7E5E00C94631D1F9259
:103840000F920FB60F9211240F931F932F933F9354
:103850004F935F936F937F938F939F93AF93BF9398
:10386000EF93FF93CF93DF930F92CDB7DEB719821B
:103870000E947F1BCE0101960E948D1B082F06958A
:1038800006950695982F92959570202F2570920F8A
:10389000292F237096959695920F98279770898176
:1038A000892B811509F05CC0053008F059C080E112
:1038B0008A95F1F75A9A529A82E08A95F1F700C0F8
:1038C0005A9888E0089F80011124D801A55FBE4F57
:1038D0001696ED91FC9117973097A9F060913601FB
:1038E0007091370114962D913C911597260F371F33
:1038F00011968D919C911297680F791F13964C9198
:1039000013978C910995F801E55FFE4F638161156E
:1039100051F0209136013091370184819581820FD9
:10392000931F0E94071C0E94871B80E18A95F1F774
:103930005A9852985A9A80E18A95F1F7F801E55F12
:10394000FE4F6081611551F02091360130913701B1
:1039500081819281820F931F0E94B91B0E947F1B5D
:103960000F90DF91CF91FF91EF91BF91AF919F9118
:103970008F917F916F915F914F913F912F911F9107
:103980000F910F900FBE0F901F9018950F931F93DC
:10399000CF93DF938C0105970CF064C0F894529A92
:1039A0005A9885E08A95F1F70000C02FC695C5703A
:1039B000802F8570C80F8C2F8370C695C69593E0B5
:1039C000000F111F9A95E1F7C80FC8018C2BEC016D
:1039D0000E94871B00C068E08C2F0E94E41B90E1CE
:1039E0009A95F1F752985A9A4A9B35C087E090E031
:1039F0004A9933C0F801E55FFE4F6381611561F0BC
:103A0000209136013091370184819581820F931F77
:103A10000E94B91B811519F10E947F1B80E28A95D3
:103A2000F1F75A98529A90E19A95F1F7F801E55F0B
:103A3000FE4F6081611551F02091360130913701C0
:103A400081819281820F931F0E94071C0E94871B15
:103A5000789481E008C000C0C7CF019749F4529A1A
:103A60005A9A789480E0DF91CF911F910F91089539
:103A700000C0BECF2F923F924F925F926F927F9283
:103A80008F929F92AF92BF92CF92DF92EF92FF926E
:103A90000F931F93CF93DF93CDB7DEB7CA1BDB0B1A
:103AA0000FB6F894DEBF0FBECDBF09942A883988BF
:103AB00048885F846E847D848C849B84AA84B984C6
:103AC000C884DF80EE80FD800C811B81AA81B981D2
:103AD000CE0FD11D0FB6F894DEBF0FBECDBFED01E6
:103AE000089597FB072E16F4009407D077FD09D0B0
:103AF0000E948B1D07FC05D03EF4909581959F4F49
:103B00000895709561957F4F0895EE0FFF1F059002
:103B1000F491E02D0994AA1BBB1B51E107C0AA1F19
:103B2000BB1FA617B70710F0A61BB70B881F991F5E
:103B30005A95A9F780959095BC01CD010895F99902
:103B4000FECF92BD81BDF89A992780B50895A8E16E
:103B5000B0E042E050E00C94E31DDC01A40FB51F7F
:103B60004150504048F0CB01840F951F2E910E9488
:103B7000BE1D41505040D0F70895262FF999FECF31
:103B800092BD81BDF89A019700B4021639F01FBAB0
:103B900020BD0FB6F894FA9AF99A0FBE08950396CD
:103BA000272F0E94BE1D0E94BD1D252F0E94BE1DF5
:103BB000242F0C94BE1D0196272F0E94BE1D0C942D
:103BC000BD1DDC01CB01FC01F999FECF06C0F2BDA1
:103BD000E1BDF89A319600B40D9241505040B8F7CB
:103BE0000895FB01DC0104C08D910190801921F43E
:103BF00041505040C8F7881B990B0895FB01DC0128
:103C000002C001900D9241505040D8F70895F894A9
:103C1000FFCF7E06860689068F06A406A406A406A4
:103C2000A406A406A406A406A406920697069B066C
:103C3000A106B206B806BC06F50B1B0C210C1B0C2A
:103C4000210C740C960C210C940DA10D2B112F112D
:103C50000D112711331137113B119E110612A611B8
:103C600070117411AA117811AE11BA118411FF11DB
:103C70008811BE118C11C211E7119011C611EE11FD
:103C80009611CC11D4117C11B2118011B6119A1178
:103C9000D011DE11F711FD116A11A2110D12A91236
:103CA000A912E012E012771394130A130A1399135E
:063CB00025143614361441
:103CB6000185074D0964096B0972090000000100BE
:103CC60000000000000004010000000405000000E0
:103CD600000000040900000000000001946697C679
:103CE600F4F5F6F731332302E200E900EA00B50005
:103CF600B600B700CD008301CC008A019201940181
:103D06002102230224022502260227022A02B300E8
:103D1600B4006F0070009F01CB019F02A002E20079
:103D2600E900EA00B500B600B700CD008301CC007B
:103D36008A0192019401210223022402250226020D
:103D460027022A02B300B4006F0070009F01CB0166
:043D56009F02A00226
:00000001FF
